:020000040800F2
:1000000000C00020391F00081F1F0008211F000822
:10001000231F0008251F0008271F000800000000FC
:10002000000000000000000000000000291F000880
:100030002B1F0008000000002D1F00082F1F0008C4
:10004000811F0008811F0008811F0008811F000810
:10005000811F0008811F0008811F0008811F000800
:10006000811F0008811F0008811F0008811F0008F0
:10007000811F0008811F0008811F0008811F0008E0
:10008000811F0008811F0008811F0008811F0008D0
:10009000811F0008811F0008811F0008811F0008C0
:1000A000811F0008811F0008811F0008811F0008B0
:1000B000811F0008811F0008811F0008811F0008A0
:1000C000811F0008811F0008811F0008811F000890
:1000D000811F0008811F0008811F0008811F000880
:1000E000811F0008811F0008811F0008811F000870
:1000F000811F0008811F0008811F0008811F000860
:10010000811F0008811F0008811F0008811F00084F
:10011000811F0008811F0008811F0008811F00083F
:10012000811F0008811F0008811F0008811F00082F
:1001300000000000000000000000000000000000BF
:1001400000000000000000000000000000000000AF
:10015000000000000000000000000000000000009F
:10016000000000000000000000000000000000008F
:10017000000000000000000000000000000000007F
:10018000000000000000000000000000000000006F
:10019000000000000000000000000000000000005F
:1001A000000000000000000000000000000000004F
:1001B000000000000000000000000000000000003F
:1001C000000000000000000000000000000000002F
:1001D000000000000000000000000000000000001F
:0401E0005FF8E0F1F3
:1001E40010B5054C237833B9044B13B10448AFF36D
:1001F40000800123237010BD0C00002000000000CB
:10020400DC1F000808B5034B1BB103490348AFF3D7
:10021400008008BD0000000010000020DC1F000862
:100224002DE9F0478AB006AD00240694079408949B
:1002340009944D4B9A6942F004029A619A6902F05A
:1002440004020192019A9A6942F040029A619A6901
:1002540002F040020292029A9A6942F008029A61FC
:100264009A6902F008020392039A9A6942F0200202
:100274009A619A6902F020020492049A9A6942F0FF
:1002840010029A619B6903F010030593059BDFF844
:10029400DCA022464FF40061504600F0D1FD344FFB
:1002A40022464FF47041384600F0CAFD4FF47C53A7
:1002B40006934FF00208CDF81C804FF00309CDF8E7
:1002C400249029462B4800F0A3FC4FF400630693C6
:1002D400012607960894CDF824802946504600F05C
:1002E40097FC4FF47043069307960894CDF8248046
:1002F4002946384600F08CFC40230693CDF81C9028
:10030400DFF874802946404600F082FC4FF4004335
:100314000693079408962946184800F079FC4FF490
:10032400E0530693164B079308962946404600F07F
:100334006FFC1C230693079408942946384600F062
:1003440067FC104A536843F0E06343F0C003536012
:1003540022462146282000F029FC282000F036FC03
:100364000AB0BDE8F08700BF00100240000C014055
:100374000014014000180140001001400008014031
:10038400000021100000014072B6FEE700B585B000
:1003940000230193029303931048114A026083607F
:1003A400037303754FF46022C26143600123036148
:1003B40000F07CFA68B9022301930123029300231D
:1003C400039301A9054800F0A5F920B905B05DF82B
:1003D40004FBFFF7D9FFFFF7D7FF00BFE0000020C1
:1003E4000024014008B50B480B4B03601023436005
:1003F40000238360C360036143610376437683769D
:10040400C3760377437700F0E5FA00B908BDFFF738
:10041400BBFF00BFB80000200064004010B596B0D8
:100424000024129413941494159410941194099420
:100434000A940B940C940D940E940F94202221464C
:1004440001A801F09CFD3248324B03602C23436029
:1004540084606323C36004614461846101F068FAC9
:10046400002844D14FF48053129312A9284801F074
:1004740069FB00283DD1264801F086FA00283AD1CC
:1004840000231093119310A9214801F0DFFC0028E8
:1004940033D16023099300220A920B920C920D929D
:1004A4000E920F9209A91A4801F0D2FA38BB04221D
:1004B40009A9174801F0CCFA18BB082209A9144865
:1004C40001F0C6FAF8B90023019302930393B5220D
:1004D40004924FF48052059206934FF4804308939C
:1004E40001A90B4801F0F0FC78B916B010BDFFF774
:1004F4004BFFFFF749FFFFF747FFFFF745FFFFF704
:1005040043FFFFF741FFFFF73FFFFFF73DFF00BF4A
:1005140070000020002C014000B587B00023029336
:100524000393049305930093019314484FF080427E
:10053400026040F2CF22426083600922C2600361FC
:10054400836101F0F5F990B94FF48053029302A945
:100554000A4801F0F7FA60B9002300930193694651
:10056400064801F073FC30B907B05DF804FBFFF7EF
:100574000BFFFFF709FFFFF707FF00BF280000206C
:1005840010B596B00CAC28220021204601F0F7FCEF
:1005940000230793089309930A930B9301930293FF
:1005A400039304930593069301220C924FF4803332
:1005B4000D9310920222139214934FF4E0131593A7
:1005C400204600F0EBFCC0B90F23079302210891E9
:1005D400002309934FF480620A920B9307A800F05A
:1005E4000FFF60B9022301934FF40043039301A862
:1005F40000F0BCFF28B916B010BDFFF7C5FEFFF729
:10060400C3FEFFF7C1FE000008B500F05FF8FFF776
:10061400B7FFFFF705FEFFF7B9FEFFF7E3FEFFF7AD
:10062400FDFEFFF779FF134B00255D639D63DD63DA
:10063400114C2946204601F013FB2946204601F0BF
:1006440095FB0421204601F00BFB0421204601F018
:100654008DFB0821204601F003FB0821204601F010
:1006640085FB2268536C43F400435364034801F050
:10067400CFF8FEE7002C0140700000202800002085
:1006840010B504460E4B1A784FF47A73B3FBF2F3A9
:100694000C4A1068B0FBF3F000F0A6FA68B90F2C0E
:1006A40001D901200AE0002221464FF0FF3000F07A
:1006B4007DFA054B1C60002000E0012010BD00BF46
:1006C40000000020080000200400002008B5074AAC
:1006D400136843F010031360032000F055FA0F2051
:1006E400FFF7CEFF00F0B2FB002008BD002002405F
:1006F400034A1168034B1B780B441360704700BF17
:100704001001002000000020014B1868704700BF52
:100714001001002030B482B00022019290F824200D
:10072400012A00F08F800346012280F824204A68C1
:10073400062A2DD80468606B02EB8202053A4FF05A
:100744001F0C0CFA02FC20EA0C000D6805FA02F2F8
:10075400024362630A68092A38D91C68E06802EB1C
:1007640042021E3A4FF0070C0CFA02FC20EA0C007D
:100774008D6805FA02F20243E2600A68103A012A1F
:1007840034D90020002283F8242002B030BC704702
:100794000C2A0DD80568286B02EB8202233A1F2429
:1007A400944020EA04000C68944020432863D1E775
:1007B4000568E86A02EB8202413A1F24944020EA69
:1007C40004000C6894402043E862C3E71C68206975
:1007D40002EB42024FF0070C0CFA02FC20EA0C0078
:1007E4008D6805FA02F202432261C6E71A681648C8
:1007F400824205D09A6A42F020029A620120C1E73F
:10080400906810F4000F1BD1906840F400009060D1
:100814000A68102A01D00020B4E70C4A12680C4977
:10082400A1FB0212920C02EB82025200019202E03E
:10083400019A013A0192019A002AF9D10020A1E714
:1008440000209FE70220A0E70024014008000020C8
:1008540083DE1B4338B503689A6812F0010F01D197
:10086400002038BD04469A6822F001029A60FFF71E
:100874004BFF054623689B6813F0010F13D0FFF765
:1008840043FF431B022BF5D923689B6813F0010F28
:10089400F0D0A36A43F01003A362E36A43F00103B8
:1008A400E3620120DDE70020DBE70000002800F020
:1008B400888070B50446836A002B52D02046FFF727
:1008C400C9FFA36A13F0100375D1002873D1A26A7B
:1008D40022F4885222F0020242F00202A26262680A
:1008E400266839498E4242D0E1690A43217B42EAB3
:1008F4004102A568B5F5807F02D0012D3ED01D468A
:1009040094F814C0BCF1010F3BD0716821F4694123
:10091400294371602568AE682C4931401143A960B0
:10092400A168B1F5807F01D0012902D12369013B7F
:100934001B052568E96A21F470010B43EB62236807
:100944009968234B0B409A422CD0A36A23F01203DC
:1009540043F01003A362E36A43F00103E36201205E
:100964002EE0C36280F8243000F092FAA6E7E16931
:10097400B1F5402FB9D14FF40021B6E74FF480759B
:10098400BEE731B9A169013945EA413141F4006555
:10099400BBE7A16A41F02001A162E16A41F00101D3
:1009A400E162B2E70023E362A36A23F0030343F0A6
:1009B4000103A36204E0A36A43F01003A3620120CD
:1009C40070BD0120704700BF003C0140FDF7E1FF0E
:1009D400FE0E1FFF002800F0A18038B5044690F8F1
:1009E4002030D3B12268136843F001031360FFF78A
:1009F4008BFE054623685A6812F0010F10D1FFF7E9
:100A040083FE401B0A28F5D9636A43F4003363620A
:100A1400052384F82030012038BD00F069FAE1E7AD
:100A24001A6822F002021A60FFF76EFE0546236878
:100A34005A6812F0020F0DD0FFF766FE401B0A2819
:100A4400F5D9636A43F400336362052384F82030E4
:100A54000120E1E7227E012A3DD01A6822F08002BB
:100A64001A60637E012B3BD02268136823F0400395
:100A74001360A37E012B39D02268136823F020036E
:100A84001360E37E012B37D02268136843F0100310
:100A94001360237F012B35D02268136823F00803E9
:100AA4001360637F012B33D02268136823F004039F
:100AB4001360A368E2681343226913436269134312
:100AC4006268013A21681343CB610020606201230C
:100AD40084F82030A0E71A6842F080021A60C0E768
:100AE4002268136843F040031360C2E72268136866
:100AF40043F020031360C4E72268136823F0100353
:100B04001360C6E72268136843F008031360C8E75C
:100B14002268136843F004031360CAE70120704796
:100B2400002808DB0901C9B200F1604000F561400A
:100B340080F80013704700F00F000901C9B2014B9F
:100B44001954704714ED00E000B500F00700C0F13F
:100B5400070CBCF1040F28BF4FF0040C031D062B37
:100B64000FD9C31E4FF0FF3E0EFA0CF021EA00012C
:100B740099400EFA03FE22EA0E0241EA02005DF8F1
:100B840004FB0023EEE70000074AD36823F4E06384
:100B94001B041B0C000200F4E060034343F0BF633A
:100BA40043F40033D360704700ED00E010B5044611
:100BB400054BD868C0F30220FFF7C6FF0146204664
:100BC400FFF7AEFF10BD00BF00ED00E0002807DB1B
:100BD40000F01F02400901239340024A42F82030EA
:100BE400704700BF00E100E00138B0F1807F0BD214
:100BF4004FF0E0235861054AF02182F823100020C9
:100C0400986107221A6170470120704700ED00E0E7
:100C140070B582B00024A446A8E0834DAB4214D042
:100C24000CD8A5F58015AB420FD005F57025AB4265
:100C34000BD0A5F58015AB421FD106E07B4DAB422E
:100C440003D005F58035AB4217D18B68A3B1012BD6
:100C54000DD04261082410E0CC680EE0CC68043466
:100C64000BE0CC68083408E0CC680C3405E0026181
:100C7400082402E0002400E00424BEF1FF0F41D860
:100C840006464FEA8C0233680F25954023EA050394
:100C940004FA02F2134333604B6813F0805F63D0AD
:100CA400634B9A6942F001029A619B6903F0010364
:100CB4000193019B4FEA9C02951C5E4B53F82560FF
:100CC4000CF00305AD000F23AB4026EA03065A4B94
:100CD40098421ED003F58063984200F0838003F5A8
:100CE4008063984200F0808003F5806398427DD051
:100CF40003F5806398427BD003F58063984206D065
:100D0400062307E0061DACF108029200BBE70523A9
:100D140000E00023AB4033430232464D45F8223015
:100D24004B6813F4801F65D0444A936843EA0E036A
:100D340093604B6813F4001F62D0404AD36843EABF
:100D44000E03D3604B6813F4003F5FD03B4A5368F3
:100D540043EA0E0353604B6813F4803F5CD0374A78
:100D6400136843EA0E0313600CF1010C0B6833FAA9
:100D74000CF257D0012202FA0CF203EA020E32EA14
:100D84000303F1D14B68122B3FF647AF122B3FF60A
:100D940074AF01A555F823F04F0C00085D0C000852
:100DA400670C0008790C00087F0C00087F0C000811
:100DB4007F0C00087F0C00087F0C00087F0C0008E3
:100DC4007F0C00087F0C00087F0C00087F0C0008D3
:100DD4007F0C00087F0C00087F0C0008610C0008E1
:100DE4006D0C0008012395E7022393E7032391E7A1
:100DF40004238FE7114A936823EA0E03936098E76C
:100E04000E4AD36823EA0E03D3609BE70B4A536868
:100E140023EA0E0353609EE7084A136823EA0E038D
:100E24001360A1E702B070BD000022100000311071
:100E3400001002400000014000080140000401408D
:100E44000AB10161704709040161704782B00E4B19
:100E54009A6942F001029A619A6902F001020092D1
:100E6400009ADA6942F08052DA61DB6903F0805358
:100E74000193019B054A536823F0E06343F08063C8
:100E8400536002B0704700BF0010024000000140F0
:100E940000B587B00023029303930493059302687B
:100EA400114B9A4202D007B05DF804FB03F56C4382
:100EB4009A6942F400729A619A6902F4007200928B
:100EC400009A9A6942F004029A619B6903F0040350
:100ED4000193019B342302930323039302A9034840
:100EE400FFF796FEDFE700BF002401400008014041
:100EF40030B587B0002302930393049305930268EB
:100F0400184B9A4201D007B030BD03F5D633DA69E5
:100F140042F00072DA61DA6902F000720092009A1B
:100F24009A6942F020029A619B6903F020030193BD
:100F3400019B0123029302AD0B4C29462046FFF787
:100F440067FE022302930393032305932946204655
:100F5400FFF75EFE054A536843F0E06343F4C04381
:100F64005360D0E7006400400014014000000140D9
:100F740082B0084B1B68084AA2FB03235B0A00FBF0
:100F840003F3019300BF019B5A1E0192002BF9D178
:100F940002B0704708000020D34D6210002800F012
:100FA400F18170B582B00446036813F0010F2CD0B0
:100FB400994B5B6803F00C03042B1DD0964B5B68C4
:100FC40003F00C03082B12D06368B3F5803F41D0C3
:100FD400002B55D103F1804303F504331A6822F43E
:100FE40080321A601A6822F480221A6037E08A4B31
:100FF4005B6813F4803FE7D0874B1B6813F4003F12
:1010040003D06368002B00F0BF81236813F0020F44
:1010140075D0814B5B6813F00C0F5FD07E4B5B681F
:1010240003F00C03082B54D02369002B00F08A80B2
:101034007A4B01221A60FFF767FB0546764B1B6863
:1010440013F0020F75D1FFF75FFB401B0228F5D99F
:1010540003209EE1704A136843F48033136063688D
:1010640043B3FFF751FB05466B4B1B6813F4003F7A
:10107400CBD1FFF749FB401B6428F5D9032088E155
:10108400B3F5A02F09D0644B1A6822F480321A6099
:101094001A6822F480221A60E1E703F18043A3F581
:1010A4003C331A6842F480221A601A6842F480328F
:1010B4001A60D4E7FFF728FB0546574B1B6813F467
:1010C400003FA2D0FFF720FB401B6428F5D9032082
:1010D4005FE1514B5B6813F4803FA5D14E4B1B6815
:1010E40013F0020F03D02369012B40F04F814A4AC9
:1010F400136823F0F803616943EAC10313602368AA
:1011040013F0080F33D0A369002B5CD0434B0122AA
:10111400C3F88024FFF7F8FA05463F4B5B6A13F0E7
:10112400020F21D1FFF7F0FA401B0228F5D9032062
:101134002FE1394A136823F0F803616943EAC103D4
:101144001360DCE7354B00221A60FFF7DDFA054631
:10115400314B1B6813F0020FD1D0FFF7D5FA401BB7
:101164000228F5D9032014E10120FFF701FF2368C9
:1011740013F0040F00F09680274BDB6913F0805FB7
:1011840034D1254BDA6942F08052DA61DB6903F02D
:1011940080530193019B0125214B1B6813F4807F2D
:1011A40026D0E368012B3DD0002B53D103F18043BB
:1011B40003F504331A6A22F001021A621A6A22F051
:1011C40004021A6233E0154B0022C3F88024FFF7AF
:1011D4009BFA0546104B5B6A13F0020FC7D0FFF76A
:1011E40093FA401B0228F5D90320D2E00025D3E767
:1011F4000B4A136843F480731360FFF785FA0646BD
:10120400074B1B6813F4807FCBD1FFF77DFA801B5B
:101214006428F5D90320BCE00010024000004242DB
:10122400007000405F4A136A43F001031362E368ED
:1012340033B3FFF769FA06465A4B1B6A13F0020FE1
:101244002FD1FFF761FA801B41F288339842F3D91A
:1012540003209EE0052B09D0524B1A6A22F00102AA
:101264001A621A6A22F004021A62E0E74D4B1A6A03
:1012740042F004021A621A6A42F001021A62D6E7C4
:10128400FFF742FA0646474B1B6A13F0020F08D0D9
:10129400FFF73AFA801B41F288339842F3D90320CE
:1012A40077E0E5B9E369002B72D03E4A526802F058
:1012B4000C02082A56D0022B17D03B4B00221A6688
:1012C400FFF722FA0446374B1B6813F0007F47D020
:1012D400FFF71AFA001B0228F5D9032059E0314A16
:1012E400D36923F08053D361DCE72F4B00221A66C5
:1012F400FFF70AFA05462B4B1B6813F0007F06D054
:10130400FFF702FA401B0228F5D9032041E0236AC3
:10131400B3F5803F1AD023494B6823F47413226A2F
:10132400606A024313434B601F4B01221A66FFF7A6
:10133400EBF904461B4B1B6813F0007F0ED1FFF73B
:10134400E3F9001B0228F5D9032022E0154A53686B
:1013540023F40033A1680B435360DCE7002018E05A
:10136400002016E0012B16D00E4B5B6803F480318D
:10137400226A914211D103F47013626A93420ED12E
:10138400002006E001207047012002E0012000E077
:10139400002002B070BD0120FBE70120F9E7012025
:1013A400F7E700BF00100240000042420F4B5B68A9
:1013B40003F00C02082A01D00D487047C3F383429E
:1013C4000C49885C13F4803F0BD0084B5B68C3F373
:1013D4004043094AD35C064A02FB00F0B0FBF3F039
:1013E4007047064B03FB00F0704700BF001002403B
:1013F40000127A00F81F0008F41F000800093D00DD
:10140400002800F0A08070B50D460446524B1B68BE
:1014140003F007038B420BD24F4A136823F00703F0
:101424000B431360136803F007038B4240F08D8075
:10143400236813F0020F17D013F0040F04D0474AA7
:10144400536843F4E0635360236813F0080F04D037
:10145400424A536843F460535360404A536823F04C
:10146400F003A1680B435360236813F0010F31D0DC
:101474006368012B20D0022B25D0384A126812F061
:10148400020F64D035494A6822F0030213434B60CB
:10149400FFF73AF90646314B5B6803F00C036268C8
:1014A400B3EB820F16D0FFF72FF9801B41F288337C
:1014B4009842F0D9032045E0284A126812F4003F0C
:1014C400E0D101203EE0254A126812F0007FD9D114
:1014D400012037E0204B1B6803F00703AB420AD915
:1014E4001D4A136823F007032B431360136803F0AA
:1014F4000703AB422DD1236813F0040F06D0174A1B
:10150400536823F4E063E1680B435360236813F0EA
:10151400080F07D0114A536823F46053216943EA42
:10152400C1035360FFF742FF0C4B5B68C3F3031323
:101534000B4AD35CD8400B4B18600B4B1868FFF771
:101544009FF8002070BD012070470120FAE70120B8
:10155400F8E70120F6E700BF002002400010024037
:1015640008200008080000200400002070B582B0A4
:101574000446036813F0010F36D03F4BDB6913F0C8
:10158400805F4AD13C4BDA6942F08052DA61DB6910
:1015940003F080530193019B0125384B1B6813F41E
:1015A400807F3CD0344B1B6A13F4407313D06268C1
:1015B40002F440729A420ED02F4A136A23F4407008
:1015C4002F490126C1F840640026C1F84064106226
:1015D40013F0010F37D1284A136A23F4407361686A
:1015E4000B431362002D3FD1236813F0020F06D082
:1015F400214A536823F44043A1680B435360236892
:1016040013F0100F35D01C4A536823F4800361692A
:101614000B435360002002B070BD0025BDE7174A9C
:10162400136843F480731360FFF76EF80646134B98
:101634001B6813F4807FB5D1FFF766F8801B64281C
:10164400F5D90320E7E7FFF75FF806460A4B1B6A64
:1016540013F0020FBFD1FFF757F8801B41F2883314
:101664009842F3D90320D6E7D36923F08053D3619A
:10167400BAE70020CFE700BF00100240007000402E
:101684000000424230B4036A026A22F0010202629C
:101694004268846924F0730C0C6844EA0C0423F057
:1016A400020C8B6843EA0C03114DA84203D005F5E4
:1016B4000065A84205D123F00803CD682B4323F02D
:1016C40004030B4DA84203D005F50065A84207D1D9
:1016D40022F440724D6945EA020C8A6942EA0C021E
:1016E400426084614A684263036230BC704700BF51
:1016F400002C014030B4036A026A22F48072026250
:101704004268C46924F0730C0C6844EA0C0523F4A1
:1017140000738C6843EA0423114CA04203D004F5FF
:101724000064A04206D123F40063CC6843EA042396
:1017340023F480630A4CA04203D004F50064A04261
:1017440007D122F440524C6942EA04128C6942EAFD
:1017540004124260C5614A68C263036230BC7047C8
:10176400002C014030B4036A026A22F480520262FF
:101774004468C26922F4E6420D6842EA052223F471
:1017840000538D6843EA0533094DA84203D005F59B
:101794000065A84204D124F480444D6944EA8514C8
:1017A4004460C2614A680264036230BC704700BF8F
:1017B400002C014010B4036A046A24F0010404629A
:1017C400846924F0F00C4CEA021223F00A030B4360
:1017D4008261036210BC704710B4036A046A24F087
:1017E40010040462846924F4704C4CEA023223F03D
:1017F400A00343EA01138261036210BC704783684B
:1018040023F070030B4343F0070383607047704772
:1018140090F83D30012B2FD1022380F83D3002682F
:10182400D36843F00103D3600368154A934218D088
:1018340002F50062934214D0B3F1804F11D0A2F5A7
:10184400983293420DD002F58062934209D002F59A
:101854008062934205D01A6842F001021A600020A7
:1018640070479A6802F00702062A07D01A6842F005
:1018740001021A6000207047012070470020704761
:10188400002C0140704700000368284A904212D09F
:1018940002F5006290420ED0B0F1804F0BD0A2F559
:1018A4009832904207D002F58062904203D002F54C
:1018B4008062904203D123F070034A6813431B4AA9
:1018C400904212D002F5006290420ED0B0F1804FE7
:1018D4000BD0A2F59832904207D002F58062904274
:1018E40003D002F58062904203D123F44073CA68A6
:1018F400134323F080034A69134303608B68C36274
:101904000B688362094B984203D003F50063984245
:1019140001D10B69036301234361036913F0010FD0
:1019240003D0036923F0010303617047002C0140D5
:1019340040B310B5044690F83D30F3B1022384F867
:101944003D30214651F8040BFFF79EFF012384F834
:10195400463084F83E3084F83F3084F8403084F8D0
:10196400413084F8423084F8433084F8443084F8B9
:10197400453084F83D30002010BD80F83C30FFF73E
:1019840046FFDBE70120704740B310B5044690F8EA
:101994003D30F3B1022384F83D30214651F8040B65
:1019A400FFF772FF012384F8463084F83E3084F850
:1019B4003F3084F8403084F8413084F8423084F871
:1019C400433084F8443084F8453084F83D300020B6
:1019D40010BD80F83C30FFF755FFDBE7012070476E
:1019E40030B4036A026A22F0100202624468826917
:1019F40022F4E6420D6842EA052223F020038D68B2
:101A040043EA0513114DA84203D005F50065A84229
:101A140006D123F08003CD6843EA051323F0400385
:101A24000A4DA84203D005F50065A84207D124F465
:101A340040644D6944EA85048D6944EA8504446040
:101A440082614A688263036230BC7047002C0140A3
:101A540038B590F83C30012B66D004460D4601237E
:101A640080F83C300C2A5AD8DFE802F0075959595B
:101A74001B5959593059595944000068FFF702FE5F
:101A84002268936943F0080393612268936923F001
:101A9400040393612268936929690B4393610020CD
:101AA4003EE00068FFF79CFF2268936943F40063FB
:101AB40093612268936923F4806393612268936934
:101AC400296943EA01239361002029E00068FFF7B4
:101AD40011FE2268D36943F00803D3612268D369F5
:101AE40023F00403D3612268D36929690B43D361CA
:101AF400002015E00068FFF735FE2268D36943F43F
:101B04000063D3612268D36923F48063D3612268BC
:101B1400D369296943EA0123D361002000E001204D
:101B2400002384F83C3038BD0220FCE710B48468FC
:101B340024F47F4C42EA03220A4342EA0C02826004
:101B440010BC704790F83C30012B78D010B5044697
:101B5400012380F83C30022380F83D30026893680A
:101B640023F47F4323F0770393600B68602B4CD0FE
:101B740023D8402B54D011D8202B03D00AD80BB132
:101B8400102B05D119462068FFF739FE002028E004
:101B9400012026E0302BF5D0012022E0502B0AD181
:101BA400CA6849680068FFF705FE50212068FFF7FE
:101BB40026FE002015E0012013E0B3F5805F3AD043
:101BC400B3F5005F14D0702B37D1CB684A688968AD
:101BD4000068FFF7ABFF2268936843F077039360D4
:101BE4000020012384F83D30002384F83C3010BDEC
:101BF400CB684A6889680068FFF798FF2268936891
:101C040043F4804393600020EBE7CA6849680068A6
:101C1400FFF7E2FD60212068FFF7F1FD0020E0E717
:101C2400CA6849680068FFF7C5FD40212068FFF7CE
:101C3400E6FD0020D5E70020D3E70120D1E702200C
:101C4400704701F01F014FF0010C0CFA01FC036A0C
:101C540023EA0C030362036A8A4013430362704756
:101C640010B504460846002939D194F83E30013BAA
:101C740018BF0123002B63D1002846D1022384F826
:101C84003E30012201462068FFF7DBFF23682E4A1D
:101C9400934203D002F50062934203D15A6C42F49A
:101CA40000425A642368284A93423ED002F50062F7
:101CB40093423AD0B3F1804F37D0A2F59832934291
:101CC40033D002F5806293422FD002F580629342B2
:101CD4002BD01A6842F001021A6000202FE0042978
:101CE40007D008290BD094F84130013B18BF0123D9
:101CF400C0E794F83F30013B18BF0123BAE794F8DA
:101D04004030013B18BF0123B4E7042805D008285C
:101D140007D0022384F84130B3E7022384F83F302C
:101D2400AFE7022384F84030ABE79A6802F0070279
:101D3400062A07D01A6842F001021A60002010BD7A
:101D44000120FCE70020FAE7002C014001F00F011C
:101D54004FF0040C0CFA01FC036A23EA0C0303623F
:101D6400036A8A40134303627047000010B50446B7
:101D74000846002932D194F84230013B18BF0123B0
:101D8400002B5CD100283FD1022384F84230042286
:101D940001462068FFF7DAFF2268536C43F40043DE
:101DA40053642368284A93423ED002F5006293426A
:101DB4003AD0B3F1804F37D0A2F59832934233D062
:101DC40002F5806293422FD002F5806293422BD0B9
:101DD4001A6842F001021A6000202FE0042907D09B
:101DE40008290BD094F84530013B18BF0123C7E7FD
:101DF40094F84330013B18BF0123C1E794F8443001
:101E0400013B18BF0123BBE7042805D0082807D0ED
:101E1400022384F84530BAE7022384F84330B6E756
:101E2400022384F84430B2E79A6802F00702062AD3
:101E340007D01A6842F001021A60002010BD012088
:101E4400FCE70020FAE700BF002C014090F83C209A
:101E5400012A34D010B40346012280F83C20022227
:101E640080F83D2002685068946820F0700C08687F
:101E740040EA0C0050601A681248824212D000F501
:101E8400006082420ED0B2F1804F0BD0A0F59830A2
:101E9400824207D000F58060824203D000F5806062
:101EA400824204D124F080044968214391600122D4
:101EB40083F83D20002083F83C0010BC70470220CA
:101EC400704700BF002C0140024690F83C30012BC3
:101ED40021D0012380F83C30CB6823F44073886818
:101EE400034323F480634868034323F400630868CE
:101EF400034323F480530869034323F400534869DC
:101F0400034323F48043C9690B4311684B640020E5
:101F140082F83C00704702207047FEE7FEE7FEE7C8
:101F2400FEE7FEE770477047704708B5FEF7E0FB31
:101F340008BD7047FFF7FDFF0B480C490C4A00230E
:101F440002E0D458C4500433C4188C42F9D3094A6B
:101F5400094C002301E013600432A242FBD300F0D9
:101F640017F8FEF751FB7047000000200C0000201A
:101F7400202000080C00002014010020FEE7034686
:101F84000244934200D1704703F8011BF9E70000B3
:101F940070B500260C4D0D4B5B1B9C10A64209D15D
:101FA400002600F019F80A4D0A4B5B1B9C10A64250
:101FB40005D170BD55F8043B98470136EEE755F856
:101FC400043B98470136F2E718200008182000085F
:101FD400182000081C200008F8B500BFF8BC08BC95
:101FE4009E467047F8B500BFF8BC08BC9E467047D3
:101FF4000102000002030405060708090A0B0C0D80
:102004000E0F101000000000000000000102030485
:0420140006070809AA
:0420180009020008B1
:04201C00E5010008D2
:0C202000010000001000000000127A0017
:0400000508001F3997
:00000001FF
